:060000000A128A11122809
:10000800FE00030E83120313AF000408B0000A08B1
:10001800B1007F08B2000A128A11F8280A128A1160
:10002800152883120313B901BA01BB0183010A120F
:100038008A11182A83120313AB002130A600E32883
:1000480025302C06031929282A2834282B0884004F
:100058002C08831380000130A3002308AB07E32892
:10006800A7010130A007FF30200784000A128A1177
:1000780032220A128A11AC00A300A4012408003A13
:1000880003194728E3282308003A0319F328643A98
:10009800031952280D3A03195228E3282608840028
:1000A80083130008A900840A0008AA000230A300EC
:1000B8002308A607AA1F612862286B280330A3001B
:1000C8002308A704A909AA09A90A0319AA0AAC01BD
:1000D800AC0A2C08A3002307013E84000A128A11E7
:1000E80032220A128A11A4000A128A1132220A1232
:1000F8008A11A50025082A02031D8428240829023C
:10010800031887288828892893280130A300230802
:10011800AC0705302C06031D922893286D28270864
:100128000339031998289928A2282B0884002D3010
:10013800831380000130A3002308AB072C08A80014
:10014800DA280A30F8000030F9002808A30023074D
:10015800013E84000A128A1132220A128A11F00022
:100168000A128A1132220A128A11F1002A08F300AF
:100178002908F2000A128A113F210A128A1171080D
:10018800FB007008FA000A128A1183210A128A11E8
:100198007808303E83120313AC002B0884002C0827
:1001A800831380000130A3002308AB07FF30A300AE
:1001B8002308A807280A031DE228E328A5280130F8
:1001C800A007FF30200784000A128A1132220A127F
:1001D8008A11AC002C08031DF228F32824282B08C8
:1001E80084008313800108008C1EFB28FC28FE284D
:1001F8001A0885000B1C012902293029061C05292B
:10020800062919290130AD002D08B9070C30A000C6
:100218003908AD00AE012D08A1002E08A2003A3021
:100228000A128A111E200A128A1183120313861CCD
:100238001E291F2930290130B9020C30A0003908C5
:10024800AD00AE012D08A1002E08A2003A300A1216
:100258008A111E200A128A110B10831203138C12A2
:100268003208FF0031088A00300884002F0E83000E
:10027800FE0E7E0E0900F501F601700871040319DF
:10028800462947297E29F701F70A55290130031025
:10029800F00DF10DFF3E031D4B290130F4007408E9
:1002A800F707F11F582959294A2901300310F50D7C
:1002B800F60DFF3E031D5A2971087302031D6629B6
:1002C80070087202031C69296A2971297008F202F0
:1002D8007108031CF303F302751401300310F10CC9
:1002E800F00CFF3E031D72290130F702031D7D2922
:1002F8007E2959297608F1007508F0000800780869
:100308007904031988298929B829FD01FD0A972943
:1003180001300310F80DF90DFF3E031D8D29013042
:10032800FC007C08FD07F91F9A299B298C2979086C
:100338007B02031DA12978087A02031CA429A52998
:10034800AB297808FA027908031CFB03FB02013089
:100358000310F90CF80CFF3E031DAC290130FD0217
:10036800031DB729B8299B297B08F9007A08F800EA
:1003780008004030831603138F00C8308B002030EC
:100388008C00831203138C01243083160313980006
:1003980008308316031787009030831203139800E0
:1003A80019308316031399009A01810103308600DE
:1003B80003309500033096008316031788018901DE
:1003C8008316031385018312031385018601080030
:1003D80083120313B500B601012A0C1EF429F5296E
:1003E800F12936083507B300330884008313000861
:1003F80099000130B3003308B60736083507B30053
:100408003308840083130008031D0B2A0C2AF129E2
:10041800213083120313B4007530B300B30B122AD2
:10042800B40B122A172A08000A128A11BD210A12CF
:100438008A113A300A128A11EC210A128A11A33061
:1004480083120313B8005430B700B70B292AB80B2E
:10045800292A00001D2A0A128A11122802308A004D
:100468000408840A82070034013400340A34003452
:1004780064340034E8340334103427340D3425341C
:0404880064340034A4
:08400000FF3FFF3FFF3FFF3FC0
:04400E00D420FF3F7C
:00000001FF
